:1000000040EF00F00000000000EF00F000000000F2
:0A0010000000000000000000F3D71C
:10001C00026A050E025C25E2FF0E826E0250070892
:10002C00006E00C001F0010E006E015004E00036BD
:10003C000090FF0FFBD7001E0050821602501A24AE
:10004C00E96E000E1B20EA6EEECF83FF060E0C6EDF
:10005C00300E0D6E0D2EFED70C2EFCD70000022A92
:04006C00D8D71200CF
:100070000900F5CFE6FF0006FBE10106F9E11200F9
:100080003F0E156E440E166E440E176E440E186E1B
:100090003F0E196E946A956A826A836A150E1A6E0B
:0A00A000000E1B6EBBDFFAD7FFD77E
:020000040030CA
:0D000100021F1EFF8381FF0FC00FE00F40A4
:00000001FF
