:1000000016EF00F00000000000EF00F0000000001C
:0A0010000000000000000000F3D71C
:10001C000900F5CFE6FF0006FBE10106F9E112004D
:10002C00946A956A826A836A7F0E826E7F0E836EF3
:10003C00060E0C6E300E0D6E0D2EFED70C2EFCD750
:10004C000000BF0E826EFF0E836E060E0C6E300E1D
:10005C000D6E0D2EFED70C2EFCD70000DF0E826E1F
:10006C00CC0E836E060E0C6E300E0D6E0D2EFED762
:10007C000C2EFCD70000EF0E826EFF0E836E060E68
:10008C000C6E300E0D6E0D2EFED70C2EFCD7000014
:10009C00F70E826E7F0E836E060E0C6E300E0D6E9A
:0E00AC000D2EFED70C2EFCD70000BED7FFD7BE
:020000040030CA
:0D000100021F1EFF8381FF0FC00FE00F40A4
:00000001FF
