:1000000074EF00F00000000000EF00F000000000BE
:0A0010000000000000000000F3D71C
:10001C007F0E826E1AC0E9FF1BC0EAFFEECF83FF92
:10002C00060E0C6E300E0D6E0D2EFED70C2EFCD760
:10003C000000BF0E826E010E1A24E96E000E1B200A
:10004C00EA6EEECF83FF060E0C6E300E0D6E0D2E8B
:10005C00FED70C2EFCD70000DF0E826E020E1A2487
:10006C00E96E000E1B20EA6EEECF83FF060E0C6EBF
:10007C00300E0D6E0D2EFED70C2EFCD70000EF0EA1
:10008C00826E030E1A24E96E000E1B20EA6EEECF70
:10009C0083FF060E0C6E300E0D6E0D2EFED70C2E41
:1000AC00FCD70000F70E826E040E1A24E96E000EC7
:1000BC001B20EA6EEECF83FF060E0C6E300E0D6E1B
:0C00CC000D2EFED70C2EFCD700001200F9
:1000D8000900F5CFE6FF0006FBE10106F9E1120091
:1000E8003F0E156E440E166E440E176E440E186EB3
:1000F8003F0E196E946A956A826A836A150E1A6EA3
:0A010800000E1B6E87DFFAD7FFD749
:020000040030CA
:0D000100021F1EFF8381FF0FC00FE00F40A4
:00000001FF
