:1000000016EF00F00000000000EF00F0000000001C
:0A0010000000000000000000F3D71C
:10001C000900F5CFE6FF0006FBE10106F9E112004D
:10002C00946A956A826A836AFE0E826EFF0E836EF4
:10003C00060E0C6E300E0D6E0D2EFED70C2EFCD750
:10004C000000FD0E826E180E836E060E0C6E300EC6
:10005C000D6E0D2EFED70C2EFCD70000FB0E826E03
:10006C00240E836E060E0C6E300E0D6E0D2EFED70A
:10007C000C2EFCD70000F70E826E420E836E060E1D
:10008C000C6E300E0D6E0D2EFED70C2EFCD7000014
:10009C00EF0E826E810E836E060E0C6E300E0D6EA0
:0E00AC000D2EFED70C2EFCD70000BED7FFD7BE
:020000040030CA
:0D000100021F1EFF8381FF0FC00FE00F40A4
:00000001FF
